:04000000B70208003B
:0400040023A0020033
:0400080037040400B5
:04000C00B72A080007
:04001000370C0100A8
:04001400130CFCFFCE
:04001800B78C0000A1
:04001C00EF0F401E84
:04002000130D0000BC
:04002400930D000038
:040028001305E003D9
:04002C00EF000021C0
:0400300013050002B2
:04003400EF00802039
:04003800930400002D
:04003C0013090000A4
:04004000370308007A
:04004400130343025D
:04004800832303000B
:04004C0093F3130017
:04005000E38C03FE3C
:040054003703080066
:040058001303030289
:04005C000345030055
:0400600093021006F1
:040064006348550098
:040068009302A00758
:04006C0063C4A200C7
:04007000130505FE71
:04007400EF00801CFD
:040078009302D0001F
:04007C00630E5504B6
:040080009302A00047
:04008400630A5504B2
:040088009302A0033C
:04008C006300550AAE
:0400900093022005B2
:040094006304551498
:0400980093020003CC
:04009C00E34255FAEC
:0400A0009302900334
:0400A40063C6A2008D
:0400A800930205FDBD
:0400AC006F00800160
:0400B00093021004A3
:0400B400E34655F8D2
:0400B800930260044B
:0400BC00E3C2A2F801
:0400C000930295FC16
:0400C40093F2F200C1
:0400C80093944400C9
:0400CC00B3E4540045
:0400D0001309100000
:0400D4006FF0DFF6F4
:0400D80063040900B4
:0400DC001384040085
:0400E0001305A00361
:0400E400EF00801594
:0400E80013050002FA
:0400EC00EF0000150C
:0400F000832904005C
:0400F400130AC0012A
:0400F800B3D2490135
:0400FC0093F2F20089
:040100001303A00045
:0401040063C662006C
:040108009382720369
:04010C006F00800000
:0401100093820203D1
:04011400138502004D
:04011800EF004012A2
:04011C00130ACAFFF9
:04012000E35C0AFC96
:04012400130444007C
:040128006F00000D57
:04012C00630409005F
:040130001384040030
:040134009304000030
:040138003703080081
:04013C001303430264
:040140008323030012
:0401440093F313001E
:04014800E38C03FE43
:04014C00370308006D
:040150001303030290
:04015400034503005C
:0401580093021006F8
:04015C00634855009F
:040160009302A0075F
:0401640063C4A200CE
:04016800130505FE78
:04016C00EF00000D93
:0401700093020002F4
:0401740063085504C3
:040178009302D0001E
:04017C00630A5504B9
:040180009302A00046
:0401840063065504B5
:0401880093020003DB
:04018C00E34655FAF7
:040190009302900343
:0401940063C6A2009C
:04019800930205FDCC
:04019C006F0080016F
:0401A00093021004B2
:0401A400E34A55F8DD
:0401A800930260045A
:0401AC00E3C6A2F80C
:0401B000930295FC25
:0401B40093F2F200D0
:0401B80093944400D8
:0401BC00B3E4540054
:0401C0006FF09FF746
:0401C4002320940060
:0401C80013044400D8
:0401CC006FF09FF63B
:0401D0002320940054
:0401D40013044400CC
:0401D8006F000002B2
:0401DC0063040900AF
:0401E0001384040080
:0401E400130D0000F7
:0401E800930D000073
:0401EC00EF0F4001D0
:0401F0009300000078
:0401F400670004009C
:0401F800EF00001202
:0401FC006FF0DFE2DF
:0402000093820A00DB
:04020400372300009C
:04020800130303F4E5
:04020C0023A08201A8
:0402100023A28201A2
:0402140023A482019C
:0402180023A6820196
:04021C0023A8820190
:0402200023AA82018A
:0402240023AC820184
:0402280023AE82017E
:04022C0093820202B5
:040230001303F3FFC2
:04023400E31C03FCC8
:0402380067800F00CC
:04023C009302A00089
:04024000630C550CEA
:040244009302D00051
:040248006308550CE6
:04024C009302000217
:04025000630E550ADA
:04025400EF0F000E9A
:0402580093122D00D0
:04025C00B382A201C6
:0402600013932D00C7
:0402640093931D0053
:0402680033037300E9
:04026C00931E83005A
:04027000131F6300F5
:04027400B38EEE0156
:04027800B38E5E00E3
:04027C00939E2E001F
:04028000B38E5E01DA
:0402840093083001AA
:0402880093030000DC
:04028C0033DF150146
:04029000137F1F00B9
:0402940063060F00EE
:0402980023A09E0100
:04029C006F0080006F
:0402A00023A08E0108
:0402A4009388F8FF44
:0402A80033DF15012A
:0402AC00137F1F009D
:0402B00063060F00D2
:0402B40023A29E01E2
:0402B8006F00800053
:0402BC0023A28E01EA
:0402C0009388F8FF28
:0402C40033DF15010E
:0402C800137F1F0081
:0402CC0063060F00B6
:0402D00023A49E01C4
:0402D4006F00800037
:0402D80023A48E01CC
:0402DC009388F8FF0C
:0402E00033DF1501F2
:0402E400137F1F0065
:0402E80063060F009A
:0402EC0023A69E01A6
:0402F0006F0080001B
:0402F40023A68E01AE
:0402F8009388F8FFF0
:0402FC00938E0E507F
:0403000093831300D0
:04030400130F500083
:04030800E3C2E3F970
:04030C00130D1D00B0
:040310009302000450
:04031400634E5D00D7
:04031800130D0000C1
:04031C00938D1D00A0
:040320009302100232
:0403240063C65D004F
:04032800930D000031
:04032C00EFFF5FED93
:0403300067800000E2
:04033400930200032D
:04033800630E5508F3
:04033C009302100315
:040340006300550AF7
:0403440093022003FD
:040348006302550AED
:04034C0093023003E5
:040350006304550AE3
:0403540093024003CD
:040358006306550AD9
:04035C0093025003B5
:040360006308550ACF
:04036400930260039D
:04036800630A550AC5
:04036C009302700385
:04037000630C550ABB
:04037400930280036D
:04037800630E550AB1
:04037C009302900355
:040380006300550CB5
:0403840093021004CC
:040388006302550CAB
:04038C0093022004B4
:040390006304550CA1
:04039400930230049C
:040398006306550C97
:04039C009302400484
:0403A0006308550C8D
:0403A400930250046C
:0403A800630A550C83
:0403AC009302600454
:0403B000630C550C79
:0403B400930220058B
:0403B800630E550C6F
:0403BC009302A00305
:0403C0006300550E73
:0403C4009302E003BD
:0403C8006302550E69
:0403CC009305000095
:0403D00067800F0033
:0403D400B7A50600C3
:0403D800938565990B
:0403DC0067800F0027
:0403E000B7C5040099
:0403E4009385E544D4
:0403E80067800F001B
:0403EC00B7950600BB
:0403F0009385F524D8
:0403F40067800F000F
:0403F800B7150F0026
:0403FC009385F5618F
:0404000067800F0002
:04040400B7A509008F
:04040800938515F1D2
:04040C0067800F00F6
:04041000B7950F008D
:040414009385E5E106
:0404180067800F00EA
:04041C00B795070089
:04042000938565E972
:0404240067800F00DE
:04042800B7150F00F5
:04042C00938545244B
:0404300067800F00D2
:04043400B795060072
:0404380093856569DA
:04043C0067800F00C6
:04044000B795060066
:0404440093856571C6
:0404480067800F00BA
:04044C00B7A506004A
:04045000938595F902
:0404540067800F00AE
:04045800B7A50E0036
:04045C009385E5E9B6
:0404600067800F00A2
:04046400B7A5060032
:04046800938565898A
:04046C0067800F0096
:04047000B7A50E001E
:040474009385E599EE
:0404780067800F008A
:04047C00B7950F0021
:040480009385F5E883
:0404840067800F007E
:04048800B7950F0015
:04048C00938585E8E7
:0404900067800F0072
:04049400B7A50E00FA
:04049800938595EAC9
:04049C0067800F0066
:0404A000B72500007C
:0404A4009385050235
:0404A80067800F005A
:0404AC00B745080048
:0404B0009385852487
:0404B40067800F004E
:00000001FF
