:0400000037040400BD
:0400040037030A00B4
:04000800130343009B
:04000C009302D0008B
:040010002300530076
:040014009302A000B3
:04001800230053006E
:04001C009302C00586
:040020002300530066
:040024009302000241
:04002800230053005E
:04002C009304000039
:0400300013090000B0
:0400340037030A0084
:040038001303430269
:04003C008323030017
:0400400093F3130023
:04004400E38C03FE48
:0400480037030A0070
:04004C001303030295
:040050000345030061
:0400540037030A0064
:04005800130343004B
:04005C002300A300DA
:040060009302D00037
:0400640063045506D6
:040068009302A0005F
:04006C0063005506D2
:040070009302A00354
:04007400630C550ABA
:0400780093022005CA
:04007C00630C5514A8
:0400800093022007C0
:0400840063085514A4
:0400880093020003DC
:04008C00E34455FAFA
:040090009302900344
:0400940063C6A2009D
:04009800930205FDCD
:04009C006F00C00130
:0400A0001375F50DD2
:0400A40093021004AF
:0400A800E34655F8DE
:0400AC009302600457
:0400B000E3C2A2F80D
:0400B400930295FC22
:0400B80093F2F200CD
:0400BC0093944400D5
:0400C000B3E4540051
:0400C400130910000C
:0400C8006FF0DFF600
:0400CC0063040900C0
:0400D0001384040091
:0400D40037030A00E4
:0400D80013034300CB
:0400DC009302A003E8
:0400E00023005300A6
:0400E4009302000281
:0400E800230053009E
:0400EC00832E04005B
:0400F000130FC00129
:0400F400B3D2EE0194
:0400F80093F2F2008D
:0400FC001303A0004A
:0401000063C6620070
:04010400938272036D
:040108006F00800004
:04010C0093820203D5
:0401100037030A00A7
:04011400130343008E
:04011800230053006D
:04011C00130FCFFFEF
:04012000E35A0FFC93
:04012400130444007C
:040128006FF0DFEDA8
:04012C00630409005F
:040130001384040030
:040134009304000030
:0401380037030A007F
:04013C001303430264
:040140008323030012
:0401440093F313001E
:04014800E38C03FE43
:04014C0037030A006B
:040150001303030290
:04015400034503005C
:0401580037030A005F
:04015C001303430046
:040160002300A300D5
:040164009302000200
:04016800630A5504CD
:04016C009302D0002A
:04017000630C5504C3
:040174009302A00052
:0401780063085504BF
:04017C0093020003E7
:04018000E34C55FAFD
:04018400930290034F
:0401880063C6A200A8
:04018C00930205FDD8
:040190006F00C0013B
:040194001375F50DDD
:0401980093021004BA
:04019C00E34E55F8E1
:0401A0009302600462
:0401A400E3CAA2F810
:0401A800930295FC2D
:0401AC0093F2F200D8
:0401B00093944400E0
:0401B400B3E454005C
:0401B8006FF01FF8CD
:0401BC002320940068
:0401C00013044400E0
:0401C4006FF01FF7C2
:0401C800232094005C
:0401CC0013044400D4
:0401D0006FF05FE38A
:0401D40063040900B7
:0401D8001384040088
:0401DC0037030A00DB
:0401E00013034300C2
:0401E4009302D000B2
:0401E800230053009D
:0401EC009302A000DA
:0401F0002300530095
:0401F4009300000074
:0401F8006700040098
:00000001FF
