:0400000037010100C3
:04000400130101FFE4
:04000800B70200201B
:04000C009382820059
:0400100023A0020027
:0400140037040100AC
:04001800B70A001013
:04001C00370C01009C
:04002000130CFCFFC2
:04002400930C000039
:04002800EF0F802135
:04002C00130D0000B0
:04003000930D00002C
:040034001305E003CD
:04003800EF00C01CF9
:04003C0013050002A6
:04004000EF00401C71
:040044009304000021
:040048001309000098
:04004C003703002056
:040050001303430053
:0400540083230300FF
:0400580093F313000B
:04005C00E38C03FE30
:040060003703002042
:04006400034503004D
:0400680093021006E9
:04006C006348550090
:040070009302A00750
:0400740063C4A200BF
:04007800130505FE69
:04007C00EF008018F9
:040080009302D00017
:04008400630E5504AE
:040088009302A0003F
:04008C00630A5504AA
:040090009302A00334
:040094006300550AA6
:0400980093022005AA
:04009C006302551492
:0400A00093020003C4
:0400A400E34455FAE2
:0400A800930290032C
:0400AC0063C6A20085
:0400B000930205FDB5
:0400B4006F00800158
:0400B800930210049B
:0400BC00E34855F8C8
:0400C0009302600443
:0400C400E3C4A2F8F7
:0400C800930295FC0E
:0400CC0093F2F200B9
:0400D00093944400C1
:0400D400B3E454003D
:0400D80013091000F8
:0400DC006FF01FF7AB
:0400E00063040900AC
:0400E400138404007D
:0400E8001305A00359
:0400EC00EF00801190
:0400F00013050002F2
:0400F400EF00001108
:0400F8008329040054
:0400FC00130AC00122
:04010000B3D249012C
:0401040093F2F20080
:040108001303A0003D
:04010C0063C6620064
:040110009382720361
:040114006F008000F8
:0401180093820203C9
:04011C001385020045
:04012000EF00400E9E
:04012400130ACAFFF1
:04012800E35C0AFC8E
:04012C001304440074
:040130006F00C00C90
:040134006304090057
:040138001384040028
:04013C009304000028
:040140003703002061
:04014400130343005E
:04014800832303000A
:04014C0093F3130016
:04015000E38C03FE3B
:04015400370300204D
:040158000345030058
:04015C0093021006F4
:04016000634855009B
:040164009302A0075B
:0401680063C4A200CA
:04016C00130505FE74
:04017000EF00400953
:0401740093020002F0
:0401780063085504BF
:04017C009302D0001A
:04018000630A5504B5
:040184009302A00042
:0401880063065504B1
:04018C0093020003D7
:04019000E34855FAF1
:04019400930290033F
:0401980063C6A20098
:04019C00930205FDC8
:0401A0006F0080016B
:0401A40093021004AE
:0401A800E34C55F8D7
:0401AC009302600456
:0401B000E3C8A2F806
:0401B400930295FC21
:0401B80093F2F200CC
:0401BC0093944400D4
:0401C000B3E4540050
:0401C4006FF0DFF702
:0401C800232094005C
:0401CC0013044400D4
:0401D0006FF0DFF6F7
:0401D4002320940050
:0401D80013044400C8
:0401DC006F000002AE
:0401E00063040900AB
:0401E400138404007C
:0401E800130D0000F3
:0401EC00930D00006F
:0401F000EF0F000508
:0401F4009300000074
:0401F8006700040098
:0401FC00EF004016BA
:040200006FF05FE359
:04020400130181FF62
:04020800232011009E
:04020C002322A10008
:040210003703002090
:04021400130343008D
:040218008323030039
:04021C0093F3230035
:04022000E38C03FE6A
:04022400370300207C
:040228002300A3000C
:04022C00EF0080055A
:040230000325410061
:040234008320010022
:04023800130181002D
:04023C0067800000D7
:0402400093820A009B
:04024400371300006C
:04024800130303FA9F
:04024C00131E0C0170
:04025000336E8E017A
:0402540023A0C20120
:0402580023A2C2011A
:04025C0023A4C20114
:0402600023A6C2010E
:0402640023A8C20108
:0402680023AAC20102
:04026C0023ACC201FC
:0402700023AEC201F6
:04027400938202026D
:040278001303F3FF7A
:04027C00E31C03FC80
:0402800067800F0084
:040284009302A00041
:04028800630C550CA2
:04028C009302D00009
:040290006308550C9E
:0402940093020002CF
:04029800630E550A92
:04029C00EF0F000E52
:0402A00093122D0088
:0402A400B382A2017E
:0402A80013932D007F
:0402AC0093931D000B
:0402B00033037300A1
:0402B400931E830012
:0402B800131F6300AD
:0402BC00B38EEE010E
:0402C000B38E5E009B
:0402C400939E1E00E7
:0402C800B38E5E0192
:0402CC009308300162
:0402D0009303000094
:0402D40033DF1501FE
:0402D800137F1F0071
:0402DC0063060F00A6
:0402E00023909E01C8
:0402E4006F00800027
:0402E80023908E01D0
:0402EC009388F8FFFC
:0402F00033DF1501E2
:0402F400137F1F0055
:0402F80063060F008A
:0402FC0023919E01AB
:040300006F0080000A
:0403040023918E01B2
:040308009388F8FFDF
:04030C0033DF1501C5
:04031000137F1F0038
:0403140063060F006D
:0403180023929E018D
:04031C006F008000EE
:0403200023928E0195
:040324009388F8FFC3
:0403280033DF1501A9
:04032C00137F1F001C
:0403300063060F0051
:0403340023939E0170
:040338006F008000D2
:04033C0023938E0178
:040340009388F8FFA7
:04034400938E0E285E
:040348009383130088
:04034C00130F50003B
:04035000E3C2E3F928
:04035400130D1D0068
:040358009302000408
:04035C00634E5D008F
:04036000130D000079
:04036400938D1D0058
:0403680093021002EA
:04036C0063C65D0007
:04037000930D0000E9
:04037400EFFFDFECCC
:04037800678000009A
:04037C0093020003E5
:04038000630E5508AB
:0403840093021003CD
:040388006300550AAF
:04038C0093022003B5
:040390006302550AA5
:04039400930230039D
:040398006304550A9B
:04039C009302400385
:0403A0006306550A91
:0403A400930250036D
:0403A8006308550A87
:0403AC009302600355
:0403B000630A550A7D
:0403B400930270033D
:0403B800630C550A73
:0403BC009302800325
:0403C000630E550A69
:0403C400930290030D
:0403C8006300550C6D
:0403CC009302100484
:0403D0006302550C63
:0403D400930220046C
:0403D8006304550C59
:0403DC009302300454
:0403E0006306550C4F
:0403E400930240043C
:0403E8006308550C45
:0403EC009302500424
:0403F000630A550C3B
:0403F400930260040C
:0403F800630C550C31
:0403FC009302200543
:04040000630E550C26
:040404009302A003BC
:040408006300550E2A
:04040C009302E00374
:040410006302550E20
:04041400930500004C
:0404180067800F00EA
:04041C00B7A506007A
:0404200093856599C2
:0404240067800F00DE
:04042800B7C5040050
:04042C009385E5448B
:0404300067800F00D2
:04043400B795060072
:040438009385F5248F
:04043C0067800F00C6
:04044000B7150F00DD
:040444009385F56146
:0404480067800F00BA
:04044C00B7A5090047
:04045000938515F18A
:0404540067800F00AE
:04045800B7950F0045
:04045C009385E5E1BE
:0404600067800F00A2
:04046400B795070041
:04046800938565E92A
:04046C0067800F0096
:04047000B7150F00AD
:040474009385452403
:0404780067800F008A
:04047C00B79506002A
:040480009385656992
:0404840067800F007E
:04048800B79506001E
:04048C00938565717E
:0404900067800F0072
:04049400B7A5060002
:04049800938595F9BA
:04049C0067800F0066
:0404A000B7A50E00EE
:0404A4009385E5E96E
:0404A80067800F005A
:0404AC00B7A50600EA
:0404B0009385658942
:0404B40067800F004E
:0404B800B7A50E00D6
:0404BC009385E599A6
:0404C00067800F0042
:0404C400B7950F00D9
:0404C8009385F5E83B
:0404CC0067800F0036
:0404D000B7950F00CD
:0404D400938585E89F
:0404D80067800F002A
:0404DC00B7A50E00B2
:0404E000938595EA81
:0404E40067800F001E
:0404E800B725000034
:0404EC0093850502ED
:0404F00067800F0012
:0404F400B745080000
:0404F800938585243F
:0404FC0067800F0006
:00000001FF
