:0400000037040800B9
:04000400B7840000BD
:040008009309000058
:04000C00130D0004CC
:04001000130A0000CF
:04001400931A8A00B1
:04001800B78E00009F
:04001C00B38ADA4188
:0400200013938900AD
:040024009393790039
:04002800330373002B
:04002C009393390071
:040030003303730023
:04003400330333015E
:04003800B75E0000AF
:04003C00938ECECC05
:04004000330BD3416A
:04004400930B00001A
:04004800130C000095
:04004C00930C000011
:0400500013850B0009
:0400540093850B0085
:04005800EF00400A6B
:04005C00935DE6408A
:0400600013050C0078
:0400640093050C00F4
:04006800EF0040095C
:04006C00135EE640F9
:04007000B382CD0189
:04007400370301004D
:040078006348530284
:04007C00938C1C0045
:0400800063D4AC0396
:0400840013850B00D5
:0400880093050C00D0
:04008C00EF0000077A
:040090001356E640DD
:040094001316160029
:04009800B382CD4121
:04009C00B38B5201CF
:0400A000330C6601B6
:0400A4006FF0DFFA20
:0400A800638AAC01BA
:0400AC0013963C006B
:0400B000B78700000E
:0400B4003306F60019
:0400B8006F00800055
:0400BC0013860400A3
:0400C000939E790092
:0400C400139F59002D
:0400C800B38EEE0104
:0400CC00B38E4E01A0
:0400D000939E2E00CD
:0400D400B30ED40192
:0400D80023A0CE0093
:0400DC00130A1A00E9
:0400E0009302000A7D
:0400E400E3485AF2A1
:0400E80093891900DF
:0400EC009302400635
:0400F000E3C059F21E
:0400F4009300000075
:0400F800678000001D
:0400FC0013060000E7
:0401000013030000E5
:040104006356050039
:040108003305A040DB
:04010C001343130086
:0401100063D60500AD
:04011400B305B0403F
:04011800134313007A
:04011C00638E0500E9
:0401200093F3150040
:0401240063840300ED
:040128003306A600F4
:04012C001315150092
:0401300093D515004E
:040134006FF09FFECB
:040138006304030059
:04013C003306C04086
:0401400067800000D4
:00000001FF
