:04000000370C0A00AF
:04000400B7840000BD
:0400080037090010A4
:04000C001309F9FFDC
:04001000930940010F
:04001400130A40018A
:04001800930A100037
:04001C00130B1000B2
:04002000930B00003E
:04002400930C4001F8
:04002800130D400173
:04002C0093064001F6
:040030001307400171
:0400340023200C0079
:04003800B7020A0001
:04003C009382420267
:0400400003A3020014
:04004400137313001F
:040048006314030A30
:04004C0093C21B0040
:04005000639A0202AB
:040054003704080065
:0400580013850C0000
:04005C0093050D00FB
:04006000130609007A
:04006400EF00400960
:0400680013850900F3
:04006C0093050A00EE
:0400700013860400EF
:04007400EF00400851
:04007800938C09005C
:04007C00130D0A0056
:040080006F004003CA
:040084003704090034
:04008800130404A0B9
:04008C0013850600D2
:0400900093050700CD
:040094001306090046
:04009800EF0000066F
:04009C0013850900BF
:0400A00093050A00BA
:0400A40013860400BB
:0400A800EF00000560
:0400AC00938609002E
:0400B00013070A0028
:0400B40093CB1B00CF
:0400B80023207C0184
:0400BC00B3895901AA
:0400C000330A6A0194
:0400C400635830014C
:0400C8009302C009D6
:0400CC0063D45900A0
:0400D0006F0080003D
:0400D400B30A5041DA
:0400D8006358400128
:0400DC009302000685
:0400E00063545A000B
:0400E4006FF05FF565
:0400E800330B604135
:0400EC006FF0DFF4DE
:0400F0009300000079
:0400F4006780000021
:0400F800939E75005E
:0400FC00139F5500F9
:04010000B38EEE01CB
:04010400B38EAE0008
:04010800939E2E0094
:04010C00B30ED40159
:0401100013030028AD
:0401140023A0CE0056
:0401180023A2CE0050
:04011C0023A4CE004A
:0401200023A6CE0044
:04012400B38E6E0028
:0401280023A0CE0042
:04012C0023A2CE003C
:0401300023A4CE0036
:0401340023A6CE0030
:04013800B38E6E0014
:04013C0023A0CE002E
:0401400023A2CE0028
:0401440023A4CE0022
:0401480023A6CE001C
:04014C00B38E6E0000
:0401500023A0CE001A
:0401540023A2CE0014
:0401580023A4CE000E
:04015C0023A6CE0008
:0401600067800000B4
:00000001FF
